{
  "contractName": "MyBank",
  "abi": [
    {
      "inputs": [],
      "stateMutability": "nonpayable",
      "type": "constructor"
    },
    {
      "inputs": [
        {
          "internalType": "address",
          "name": "",
          "type": "address"
        }
      ],
      "name": "balances",
      "outputs": [
        {
          "internalType": "uint256",
          "name": "",
          "type": "uint256"
        }
      ],
      "stateMutability": "view",
      "type": "function"
    },
    {
      "inputs": [],
      "name": "bankAddress",
      "outputs": [
        {
          "internalType": "address",
          "name": "",
          "type": "address"
        }
      ],
      "stateMutability": "view",
      "type": "function"
    },
    {
      "inputs": [],
      "name": "owner",
      "outputs": [
        {
          "internalType": "address",
          "name": "",
          "type": "address"
        }
      ],
      "stateMutability": "view",
      "type": "function"
    },
    {
      "inputs": [],
      "name": "deposit",
      "outputs": [],
      "stateMutability": "payable",
      "type": "function"
    },
    {
      "inputs": [
        {
          "internalType": "uint256",
          "name": "_value",
          "type": "uint256"
        }
      ],
      "name": "withdraw",
      "outputs": [],
      "stateMutability": "nonpayable",
      "type": "function"
    },
    {
      "inputs": [],
      "name": "withdrawAll",
      "outputs": [],
      "stateMutability": "nonpayable",
      "type": "function"
    },
    {
      "inputs": [],
      "name": "getBalance",
      "outputs": [
        {
          "internalType": "uint256",
          "name": "",
          "type": "uint256"
        }
      ],
      "stateMutability": "view",
      "type": "function"
    }
  ],
  "bytecode": "0x608060405234801561001057600080fd5b50336000806101000a81548173ffffffffffffffffffffffffffffffffffffffff021916908373ffffffffffffffffffffffffffffffffffffffff16021790555030600160006101000a81548173ffffffffffffffffffffffffffffffffffffffff021916908373ffffffffffffffffffffffffffffffffffffffff160217905550610916806100a16000396000f3fe6080604052600436106100705760003560e01c80637822ed491161004e5780637822ed4914610106578063853828b6146101315780638da5cb5b14610148578063d0e30db01461017357610070565b806312065fe01461007557806327e235e3146100a05780632e1a7d4d146100dd575b600080fd5b34801561008157600080fd5b5061008a61017d565b60405161009791906105a4565b60405180910390f35b3480156100ac57600080fd5b506100c760048036038101906100c29190610622565b6101c4565b6040516100d491906105a4565b60405180910390f35b3480156100e957600080fd5b5061010460048036038101906100ff919061067b565b6101dc565b005b34801561011257600080fd5b5061011b6102f4565b60405161012891906106b7565b60405180910390f35b34801561013d57600080fd5b5061014661031a565b005b34801561015457600080fd5b5061015d61041b565b60405161016a91906106b7565b60405180910390f35b61017b61043f565b005b6000600260003373ffffffffffffffffffffffffffffffffffffffff1673ffffffffffffffffffffffffffffffffffffffff16815260200190815260200160002054905090565b60026020528060005260406000206000915090505481565b6000600260003373ffffffffffffffffffffffffffffffffffffffff1673ffffffffffffffffffffffffffffffffffffffff16815260200190815260200160002054118015610269575080600260003373ffffffffffffffffffffffffffffffffffffffff1673ffffffffffffffffffffffffffffffffffffffff16815260200190815260200160002054115b61027257600080fd5b80600260003373ffffffffffffffffffffffffffffffffffffffff1673ffffffffffffffffffffffffffffffffffffffff16815260200190815260200160002060008282546102c19190610701565b925050819055506102f1813373ffffffffffffffffffffffffffffffffffffffff1661049790919063ffffffff16565b50565b600160009054906101000a900473ffffffffffffffffffffffffffffffffffffffff1681565b6000600260003373ffffffffffffffffffffffffffffffffffffffff1673ffffffffffffffffffffffffffffffffffffffff168152602001908152602001600020541161036657600080fd5b6000600260003373ffffffffffffffffffffffffffffffffffffffff1673ffffffffffffffffffffffffffffffffffffffff1681526020019081526020016000205490506000600260003373ffffffffffffffffffffffffffffffffffffffff1673ffffffffffffffffffffffffffffffffffffffff16815260200190815260200160002081905550610418813373ffffffffffffffffffffffffffffffffffffffff1661049790919063ffffffff16565b50565b60008054906101000a900473ffffffffffffffffffffffffffffffffffffffff1681565b34600260003373ffffffffffffffffffffffffffffffffffffffff1673ffffffffffffffffffffffffffffffffffffffff168152602001908152602001600020600082825461048e9190610735565b92505081905550565b804710156104da576040517f08c379a00000000000000000000000000000000000000000000000000000000081526004016104d1906107e8565b60405180910390fd5b60008273ffffffffffffffffffffffffffffffffffffffff168260405161050090610839565b60006040518083038185875af1925050503d806000811461053d576040519150601f19603f3d011682016040523d82523d6000602084013e610542565b606091505b5050905080610586576040517f08c379a000000000000000000000000000000000000000000000000000000000815260040161057d906108c0565b60405180910390fd5b505050565b6000819050919050565b61059e8161058b565b82525050565b60006020820190506105b96000830184610595565b92915050565b600080fd5b600073ffffffffffffffffffffffffffffffffffffffff82169050919050565b60006105ef826105c4565b9050919050565b6105ff816105e4565b811461060a57600080fd5b50565b60008135905061061c816105f6565b92915050565b600060208284031215610638576106376105bf565b5b60006106468482850161060d565b91505092915050565b6106588161058b565b811461066357600080fd5b50565b6000813590506106758161064f565b92915050565b600060208284031215610691576106906105bf565b5b600061069f84828501610666565b91505092915050565b6106b1816105e4565b82525050565b60006020820190506106cc60008301846106a8565b92915050565b7f4e487b7100000000000000000000000000000000000000000000000000000000600052601160045260246000fd5b600061070c8261058b565b91506107178361058b565b92508282101561072a576107296106d2565b5b828203905092915050565b60006107408261058b565b915061074b8361058b565b9250827fffffffffffffffffffffffffffffffffffffffffffffffffffffffffffffffff038211156107805761077f6106d2565b5b828201905092915050565b600082825260208201905092915050565b7f416464726573733a20696e73756666696369656e742062616c616e6365000000600082015250565b60006107d2601d8361078b565b91506107dd8261079c565b602082019050919050565b60006020820190508181036000830152610801816107c5565b9050919050565b600081905092915050565b50565b6000610823600083610808565b915061082e82610813565b600082019050919050565b600061084482610816565b9150819050919050565b7f416464726573733a20756e61626c6520746f2073656e642076616c75652c207260008201527f6563697069656e74206d61792068617665207265766572746564000000000000602082015250565b60006108aa603a8361078b565b91506108b58261084e565b604082019050919050565b600060208201905081810360008301526108d98161089d565b905091905056fea2646970667358221220abece25b654e77934ee859dd9a035669397cb4c29a43a4898499f429174bcd3e64736f6c634300080d0033",
  "immutableReferences": {},
  "source": "// SPDX-License-Identifier: MIT\npragma solidity ^0.8.0;\n\nimport \"@openzeppelin/contracts/utils/Address.sol\";\n\ncontract MyBank {\n    address public owner;\n    address public bankAddress;\n    mapping (address => uint) public balances;\n    using Address for address payable;\n\n    constructor() {\n        owner = msg.sender;\n        bankAddress = address(this);\n    }\n\n    function deposit() public payable {\n        balances[msg.sender] += msg.value;\n    }\n\n\n    function withdraw(uint _value) public {\n        require (balances[msg.sender] > 0 && balances[msg.sender] > _value);\n        \n        balances[msg.sender] -= _value;\n        payable(msg.sender).sendValue(_value);\n    }\n\n    function withdrawAll() public {\n        require (balances[msg.sender] > 0);\n\n        // Prevent reentrancy attack by implementing local variable\n        uint currentBalance = balances[msg.sender];\n        balances[msg.sender] = 0;\n        payable(msg.sender).sendValue(currentBalance);\n    }\n\n    function getBalance() public view returns(uint) {\n\n        return balances[msg.sender];\n    }\n}",
  "sourcePath": "/home/srkn/Documents/projects/truffle_test/contracts/MyBank.sol",
  "compiler": {
    "name": "solc",
    "version": "0.8.13+commit.abaa5c0e.Emscripten.clang"
  },
  "schemaVersion": "3.4.7",
  "updatedAt": "2022-04-14T19:22:38.459Z",
  "devdoc": {
    "kind": "dev",
    "methods": {},
    "version": 1
  },
  "userdoc": {
    "kind": "user",
    "methods": {},
    "version": 1
  }
}